:020000040A00F0
:10000000700503200528000ADD27000ADF27000A03
:10001000E127000AE327000AE527000A1528000A5D
:10002000000000000000000000000000E727000AB8
:10003000E927000A00000000EB27000AED27000A6C
:100040001928000A1D28000A2128000A2528000A6C
:100050002928000A2D28000A3128000A3528000A1C
:100060003928000A3D28000A4128000A4528000ACC
:100070004928000A4D28000A5128000A5528000A7C
:100080005928000A5D28000A6128000A6528000A2C
:100090006928000A6D28000A7128000A7528000ADC
:1000A0007928000A7D28000A8128000A8528000A8C
:1000B000000000008928000A8D28000A9128000A03
:1000C0009528000A9928000A9D28000AA128000AFC
:1000D000A528000AA928000AAD28000AB128000AAC
:1000E000B528000AB928000ABD28000AC128000A5C
:1000F000C528000AC928000ACD28000AD128000A0C
:1001000000000000D528000AD928000A00000000DD
:1001100000000000DD28000AE128000AE528000AA6
:10012000E928000AED28000AF128000AF528000A4B
:10013000F928000AFD28000A000000000129000A31
:100140000529000A0929000A0D29000A1129000AB7
:100150001529000A1929000A1D29000A2129000A67
:100160002529000A2929000A2D29000A000000007B
:100170003129000A000000003529000A00000000B3
:100180003929000A3D29000A4129000A4529000AA7
:10019000000000000000000000000000000000005F
:1001A0004929000A4D29000A5129000A00000000CF
:1001B0005529000A000000005929000A5D29000A9B
:1001C0006129000A000000006529000A6929000A67
:1001D0006D29000A7129000A0000000000000000DB
:1001E0000000000000000000000000007529000A67
:1001F00000000000000000007929000A0000000053
:100200007D29000A8129000A00000000000000008A
:1002100000000000000000000000000000000000DE
:100220000000000000000000000000008529000A16
:100230008929000AF8B50400002500F052FC0600E8
:10024000002C02D10120050095E04C4F2068B842F7
:100250002068B8420020A065606D002840F08B80C7
:10026000200000F07BFD41F28831200000F091FA7F
:100270002068816842480140E0680143206951EAF2
:1002800000416069401E51EA0021E0690143206895
:1002900081602068B84207D12068816831F0080188
:1002A000606B0143206881602068C16831F4E021FF
:1002B000206A01432068C1602068006930F4F810AA
:1002C000216B50EA01402168086120680169090A30
:1002D0000902A06B014320680161E06B216848615D
:1002E0002068006830F47C506168491E50EA0120A3
:1002F00021680860E06D009033000022202120007A
:1003000000F04BFA05002800C0B2002833D1206865
:10031000C168090A0902606A01432068C160206857
:10032000016831F04001A068014320680160206845
:10033000D0F8081131F0A041A06A0143E06A0143FE
:100340002068C0F808112068006850F0010021689A
:100350000860A069022805D12068806850F002007A
:1003600021688860E068B0F1806F02D1012060658B
:1003700001E0022060652800C0B2F2BD00140D4209
:10038000FCC0E0F82DE9FC4704000D00160000F069
:10039000A8FB0700A0680028E8680028E869002892
:1003A000E86A0028A86B002801D028680028D4F843
:1003B0005490B9F1020F03D1E068B0F1806F11D110
:1003C000B9F1140F05D1286802280BD0286803283A
:1003D00008D0B9F1240F4CD12868012802D0286830
:1003E000032846D100963B0000222021200000F087
:1003F000D4F982465046C0B2002837D10020A0650B
:100400002900200000F0F1F980464046C0B20028E3
:1004100033D1A86B00280BD100963B00002220218D
:10042000200000F0BAF9804602202168486224E0EA
:100430002868002802D1042060651EE02868012891
:1004400008D1606D242802D10420606515E01420D5
:10045000606512E0286802280FD1606D142802D16F
:100460000420606509E02420606506E05FF0020872
:1004700003E05FF001081020A0654046C0B2BDE86F
:10048000F6872DE9F84305000C00160000F029FB63
:100490008046286810F15009002C04D10120070083
:1004A0000820A86542E0686D04283BD12868006CEC
:1004B000401CA864A86C68642C642868006830F04C
:1004C0004050296808600096434601220421280014
:1004D00000F063F907003800C0B200280CD1286C86
:1004E000007889F80000286C401C2864A86C401E25
:1004F000A864A86C0028E6D13800C0B2002815D145
:100500000096434601220221280000F046F9070028
:100510003800C0B2002809D10220296848620220B0
:10052000686503E0012007001020A8653800C0B20C
:10053000BDE8F2832DE9F84F83460C00150000F06A
:10054000D0FA0700DBF8000010F15008DBF80000DB
:10055000D0F84890DBF80000D0F810A1002C05D1AD
:10056000012006000820CBF858006EE0DBF85400AC
:10057000042865D1DBF80000006C401CCBF8480073
:10058000DBF84800CBF84400CBF840400120DBF812
:100590000010096860F31D71DBF800000160DBF8F2
:1005A0000C00B0F1806F04D1DBF80000C0F8489077
:1005B0000FE0DBF80000D0F8000110F4E06F04D089
:1005C000DBF80000C0F8489003E0DBF80000C0F85A
:1005D00010A100953B0001220621584600F0DDF8ED
:1005E00006003000C0B2002812D198F80000DBF8F5
:1005F00040100870DBF84000401CCBF84000DBF8EE
:100600004800401ECBF84800DBF848000028E0D145
:100610003000C0B2002818D100953B000122022111
:10062000584600F0BAF806003000C0B200280CD1DD
:100630000220DBF8001048620220CBF8540004E0EE
:10064000012006001020CBF858003000C0B2BDE8F1
:10065000F28F2DE9FC4704000D00160000F041FA6E
:1006600080462068D0F848902068D0F810A1606DCE
:1006700004284FD1E868B0F5800F4BD1009643466F
:1006800000222021200000F088F807003800C0B2C6
:1006900000283DD128682168C1F888006868216871
:1006A000C1F8800028692168C1F8900020680168BD
:1006B00031F04351A8680143E868014351F000510B
:1006C00020680160E068B0F1806F03D12068C0F855
:1006D00048900CE02068D0F8000110F4E06F03D0DF
:1006E0002068C0F8489002E02068C0F810A1009689
:1006F000434601220821200000F04FF80100C9B252
:1007000000290AD10821226851620221616504E0B2
:10071000022002E001201021A165C0B2BDE8F687E9
:100720007CB504000D0000F0DCF90600606D0428C3
:1007300029D1E06D0090330000222021200000F03C
:100740002CF80100C9B2002920D1882161652968EF
:1007500008290CD169682268C2F83011102122687A
:1007600051622168096851F4801122681160216882
:100770000A68DFF834130A4029680A4352F04052ED
:1007800021680A6002E001201021A165C0B276BD97
:1007900000000200D165002070472DE9F0410500FE
:1007A0000E0017009846069C2868006A304201D067
:1007B000012000E000203900C9B2884212D014F1B3
:1007C000010FF1D000F08DF9B0EB0800844201D3A5
:1007D000002CE9D102206865A86D50F00100A865E1
:1007E000032000E00020BDE8F081F0B40300002009
:1007F0001A68126832F040521C6822609A68002A17
:1008000007D11A68146834F080044A6814431A68DF
:1008100014600A68022A0CD11A6812F5C0741A68AA
:1008200012F5C4751A6812F5C8761A6812F5D077F1
:100830001BE00A68032A0CD11A6812F5A0741A6822
:1008400012F5A4751A6812F5A8761A6812F5B07731
:100850000BE01A6812F580741A6812F584751A682C
:1008600012F588761A6812F59077D1F848C0CA6CEC
:1008700052EA0C0CC4F800C00A68022A03D12268AC
:1008800052F000522260CA6A002A10D08A6A3A6086
:10089000D4F800C03CF47C1CCA6A52EA0C0C4A6BC7
:1008A00052EA0C0C0A6B52EA0C0CC4F800C0D5F8E2
:1008B00000C05FEA5C1C5FEA4C1C4A6C52EA0C0CFC
:1008C000C5F800C08A6B002A08D00A68002A05D142
:1008D000CA6B521ED3F800C0CCF840208A6B002AA5
:1008E0001AD00A6CB2F1006F09D11A68D2F8082147
:1008F00032F08042D3F800C0CCF808210CE09A6AAC
:10090000B2F1804F08D11A68D2F8082152F0804223
:10091000D3F800C0CCF80821CA68002A00F08B8008
:10092000CA69002A4ED08A6B002A1FD0D4F800C0B2
:100930005E4A12EA0C0CCA6852EA0C0C4A6952EA86
:100940000C0C0A6952EA0C0CCA6952EA0C0C4A6A8D
:1009500052EA0C0C0A6A52EA0C0C8A6B52EA0C0C32
:100960000A6C52EA0C0CC4F800C023E0D4F800C0B2
:100970004F4A12EA0C0CCA6852EA0C0C4A6952EA55
:100980000C0C0A6952EA0C0CCA6952EA0C0C4A6A4D
:1009900052EA0C0C0A6A52EA0C0CC4F800C0DA6A7B
:1009A000B2F1805F06D14A69082A03D1226852F069
:1009B000006222608A6832608A69D3F800C0CCF88D
:1009C00048206EE08A6B002A16D0D4F800C0394A5D
:1009D00012EA0C0CCA6852EA0C0C4A6952EA0C0C76
:1009E0000A6952EA0C0C8A6B52EA0C0C0A6C52EA45
:1009F0000C0CC4F800C01BE0D4F800C05FEA9C1CDB
:100A00005FEA8C1C0A6952EA0C0CCA6852EA0C0CA8
:100A10004A6952EA0C0CC4F800C0DA6AB2F1805F8D
:100A200006D14A69082A03D1226852F00062226086
:100A30008A68326035E0CA69002A2ED08A6B002AA3
:100A400016D0D4F800C01C4A12EA0C0CCA6952EA4B
:100A50000C0C4A6A52EA0C0C0A6A52EA0C0C8A6BB9
:100A600052EA0C0C0A6C52EA0C0CC4F800C00EE0FE
:100A7000D4F800C03CF47C5CCA6952EA0C0C4A6AA7
:100A800052EA0C0C0A6A52EA0C0CC4F800C08A69DB
:100A9000D3F800C0CCF8482003E00122100008225F
:100AA0009A65C0B2F0BC7047F7FFFFCFC0C0FFF03F
:100AB000C0C0FFFFC0FFFFF0FFC0FFF0010099487A
:100AC0000268D20103D4026852F0807202600020F2
:100AD000954A10609548026852F0010202600020B9
:100AE0007047934800684FF47A71B0FBF1F1914878
:100AF0008D4A1268B2FBF1F202600068704780B55F
:100B00008D48016851F004010160006810F0040094
:100B10000090009800F0CAF90020FFF7CFFF00F026
:100B20008CF800F06BF800F038F8844800F097F982
:100B300000F03BF800F0C2F9002801D0002000E0EE
:100B4000012002BDF8B572B6FFF7D9FF002400F00E
:100B50002DFC002000F03EFA00F0D7F914F110450A
:100B60000020FC2805D27649095C29706D1C401CC8
:100B7000F7E70A2000F0B8FD14F110460027FC2F1B
:100B800009D230786E49C95D884201D000F0E4F89E
:100B9000761C7F1CF3E762B6FEE780B500F0B8FD77
:100BA000002801D000F0D8F801BD80B5634866493F
:100BB000016001214160002181600021C160162196
:100BC000016101214161002181610021C161002198
:100BD000016201214162002181620021C162002184
:100BE000016308214163002181630021C163FFF794
:100BF00021FB002801D000F0AFF801BD81B05348BF
:100C0000016851F004010160016811F004010091D4
:100C10000099016851F008010160016811F00801B4
:100C200000910099016851F002010160006810F024
:100C300002000090009801B0704710B594B03821C0
:100C4000002206A800F06EFD18210022684600F080
:100C500069FD00240021012000F06AFF002801D076
:100C600000F07AF800F0BFFF002801D000F074F81F
:100C7000012000F095FF002801D000F06DF8314808
:100C80000221026861F30302026020200690012025
:100C90000E9000200F900020109006A800F0C2FFD8
:100CA000002801D000F058F81F200090002001908B
:100CB0000020029000200390002004900020059066
:100CC0000221684601F04DFA002801D000F044F8F6
:100CD0000F98002801D11E4800E01E4810990029F5
:100CE00009D0B1F1005F09D0B1F1804F0BD0B1F163
:100CF000C04F0DD011E00E49086011E00100490815
:100D00000B4A11600CE001008908094A116007E0F4
:100D10000100C908064A116002E00E49044A116048
:100D200014B010BDFCED00E0041000E0001000E085
:100D3000040103206C010320940C03400C010320E8
:100D4000000003200020024000140D428C0C0340E0
:100D500000D8B80500366E0172B6FEE738B5A4B00B
:100D6000040014210022684600F0DCFC78210022F7
:100D700006A800F0D7FC2068464988426DD15FF490
:100D80008000069000201E9006A800F03DFD00287F
:100D900001D0FFF7E1FF4048016851F01001016008
:100DA000006810F01000059005983C48016851F06B
:100DB00004010160016811F00401059105990168C1
:100DC00051F008010160016811F0080105910599D1
:100DD000016851F002010160006810F00200059006
:100DE00005984FF4A250009002200190002002903C
:100DF000032003900A200490294D6946280001F041
:100E00009DFA4FF4006000900220019000200290B3
:100E100003200390052004906946280001F08EFA13
:100E200004200090022001900020029003200390F3
:100E30000A20049069461B4801F080FA4FF4806054
:100E400000900220019000200290032003900A20CD
:100E500004906946144801F071FA25B030BD10B510
:100E6000040020680B49884212D10B48016831F018
:100E7000100101604FF4E251094801F048FB0421E0
:100E8000084801F044FB4FF48061074801F03FFB44
:100E900010BD000000140D42900C03408C0C034068
:100EA00000080242000C02420004024202480168AB
:100EB00051F470010160704788ED00E080B50020BA
:100EC0008DF8000000F097FA002801D003201BE005
:100ED00000F064FB002801D0032015E000F0AAFB1D
:100EE000162801D003200FE000F087F9002801D078
:100EF000032009E0684600F0A3FA9DF8000080078F
:100F000001D400F02EFA002002BD2DE9F84197B07F
:100F10005021002203A800F005FC0821002201A8AE
:100F200000F000FC00208DF8000000F023F90028FC
:100F300001D003204BE0684600F0E8F89DF800007F
:100F4000800701D400F088F8022003900320069067
:100F5000022005904FF440740A944FF400550B950D
:100F60005FF0407611960020149000201590DFF875
:100F70006C7741F28838424603A93800FFF702FA3D
:100F8000002801D0042022E00120039003200690D5
:100F90000B2005900A940B9511960A2014900020BE
:100FA0001590424603A93800FFF7ECF9002801D05C
:100FB00004200CE0082001905020029001A9380084
:100FC000FFF7AEFB002801D0042000E0002018B09D
:100FD000BDE8F08170B594B004005021002268464D
:100FE00000F0A0FB00267F2C01D3022032E05FF44A
:100FF000803505FB04F500F0BDF8002801D0032082
:1010000028E00020009003200390D82002904FF4A5
:10101000407007904FF400500890069500200B9008
:101020000020119000200E9000200F9000201290C0
:1010300041F288326946DFF8A406FFF7A3F90028D9
:1010400001D0042006E000F095F8002801D003202C
:1010500000E0002014B070BD30B599B050210022DE
:1010600005A800F05FFB14210022684600F05AFB3F
:1010700000200590032008900620079000200C9087
:101080000020109000201690002013900020149053
:1010900000201790DFF8444641F288352A0005A960
:1010A0002000FFF76FF9002801D004202CE0032076
:1010B00008900520079000200C9000201090002040
:1010C00016905FF040701390002017902A0005A939
:1010D0002000FFF757F9002801D0042014E0022077
:1010E00000900220019000200290102004905FF4F4
:1010F000800003902A0069462000FFF7AAFA002822
:1011000001D0042000E0002019B030BD70B594B0CB
:10111000040050210022684600F004FB00200090EB
:1011200003200390052002900020079000200B90E0
:10113000002011905FF040700E9001200F90002071
:101140001290DFF8985541F288363200694628003F
:10115000FFF718F9002801D0042009E0320021002F
:101160002800FFF7E7F9002801D0042000E0002064
:1011700014B070BD30B599B05021002205A800F020
:10118000D1FA14210022684600F0CCFA0020059024
:10119000052007900320089000200C90002010905C
:1011A0005FF04070139000201690002017900020F0
:1011B0001890DFF8284541F288352A0005A920005B
:1011C000FFF7E0F8002801D0042014E00020009090
:1011D0000120019000200290102004905FF4800014
:1011E00003902A0069462000FFF733FA002801D057
:1011F000012000E0002019B030BD30B599B0502179
:10120000002205A800F08EFA14210022684600F0A2
:1012100089FA002005900120089006200790002000
:101220000C900020109000201690002013900020B9
:10123000149000201790DFF8A44441F288352A006A
:1012400005A92000FFF79EF8002801D004202CE01B
:10125000012008900520079000200C90002010909D
:10126000002016905FF080701390002017902A00E5
:1012700005A92000FFF786F8002801D0042014E01B
:101280000220009002200190002002901020049083
:101290005FF4800003902A0069462000FFF7D9F927
:1012A000002801D0042000E0002019B030BD30B586
:1012B00099B05021002205A800F034FA1421002230
:1012C000684600F02FFA00200590012008900420C5
:1012D000079000200C900020109000201690002015
:1012E00013900020149000201790DFF8F04341F293
:1012F00088352A0005A92000FFF744F8002801D00E
:1013000004202CE0012008900520079000200C907C
:1013100000201090002016905FF080701390002045
:1013200017902A0005A92000FFF72CF8002801D00B
:10133000042014E000200090022001900020029080
:10134000102004905FF4800003902A00694620007A
:10135000FFF77FF9002801D0042000E0002019B039
:1013600030BD80B500208DF80000684600F068F8B8
:101370009DF8000050F002008DF80000684600F073
:1013800092F8002801D003200FE0FFF790FF00281B
:1013900001D0032009E0684600F052F89DF80000F3
:1013A000800701D4032000E0002002BD80B594B086
:1013B00050210022684600F0B5F90020009001207D
:1013C0000390382002900020079000200B9000200E
:1013D000119000200E900020129041F28832694650
:1013E000DFF8F802FEF7CEFF002801D0042000E06D
:1013F000002015B000BD80B594B050210022684691
:1014000000F090F90020009003200390FF2002904C
:101410000020079000200B900020119000200E90DB
:101420000020129041F288326946DFF8B002FEF7E0
:10143000A9FF002801D0042000E0002015B000BD65
:1014400070B594B0040050210022684600F06AF99B
:10145000002000900120039035200290002007908A
:1014600000200B90002011905FF080700E90012002
:101470000F9000201290994D41F288363200694653
:101480002800FEF77FFF002801D0042009E0320089
:1014900021002800FFF74EF8002801D0042000E0CA
:1014A000002014B070BD70B594B00400502100222B
:1014B000684600F037F900200090012003903120A9
:1014C00002900020079000200B90002011905FF008
:1014D00080700E9001200F90002012907F4D41F2FD
:1014E0008836320069462800FEF74CFF002801D0FC
:1014F00004200FE0320021002800FEF7C2FF002880
:1015000001D0042006E000F007F8002801D00320F5
:1015100000E0002014B070BD30B599B05021002219
:1015200005A800F0FFF814210022684600F0FAF840
:1015300000200590052007900120089000200C90C5
:10154000002010905FF08070139000201690002013
:10155000179000201890614C41F288352A0005A9A7
:101560002000FEF70FFF002801D0042014E0002027
:1015700000900120019000200290102004905FF460
:10158000800003902A0069462000FFF762F80028D7
:1015900001D0012000E0002019B030BD38B594B072
:1015A00050210022684600F0BDF80020009066201F
:1015B0000290012003900020079000200B90002053
:1015C0000E90002011900020129000201390434CA8
:1015D00041F288352A0069462000FEF7D3FE002834
:1015E00001D0042024E000200090992002900120E6
:1015F00003900020079000200B9000200E90002008
:10160000119000201290002013902A0069462000BB
:10161000FEF7B8FE002801D0042009E0FFF77CFFA8
:10162000002801D0012003E00C2000F044F8002045
:1016300015B030BD78B595B05021002201A800F05A
:1016400071F802210022684600F06CF800240020A6
:10165000019090200390012004904FF48070089036
:10166000002009900020079000200C905FF080700F
:101670000F90022010901020129000201390002054
:101680001490164D41F28836320001A92800FEF769
:1016900079FE002801D004200BE0320069462800C2
:1016A000FEF748FF002801D0042002E09DF8010069
:1016B000C0B216B070BD30B4094909684FF47A72EF
:1016C000B1FBF2F4074A116804FB00F315686D1AC8
:1016D0009D42FBD330BC7047000000000C0103208A
:1016E00004010320041000E070B50400FFF7F9F9CD
:1016F0000500260016F1010F02D004480078861973
:10170000FFF7EFF9401BB042FAD370BD0801032088
:101710000348016851F0010101600020704700009A
:101720000004034062F30F2262F31F42401810F0DE
:10173000030308D0C91A1FD3DB0748BF00F8012DE7
:1017400028BF20F8022D130030B414461546103976
:1017500028BF20E93C00FAD8490728BF20E90C003F
:1017600048BF40F8042D890028BF20F8022D48BF4B
:1017700000F8012D30BC7047C91818BF00F8012DC2
:10178000CB0728BF00F8012D7047F0B4024610685F
:1017900095681318506803EB5004C00748BF4D44C8
:1017A000A3422DD013F8016B16F0030004BF13F809
:1017B000010BC01C31090F2907D113F8011B0F3190
:1017C00003E013F8017B05F8017B401EF9D10029E5
:1017D000E6D013F8010BC6F38106032E08BF13F8F9
:1017E000016B00EB0620404228440026B71E8F42C2
:1017F0001EBF10F8017B05F8017B761CF6D1CFE700
:10180000F0BC02F10C0070472DE9FC470500287878
:10181000C00707D5DFF864130A68520852006868E9
:1018200002430A602878800707D5DFF850130A685A
:1018300032F00402A86802430A602878400707D5FE
:10184000DFF838130A6832F01002E86802430A60D1
:101850002878000707D5DFF824130A6832F0400221
:10186000286902430A602878C00607D5DFF80C1300
:101870000A6832F48072686902430A602878800638
:1018800007D5DFF8F8120A6832F48062A8690243CB
:101890000A602878400607D5DFF8E0120A6832F4BB
:1018A0008052E86902430A602878000607D5DFF80D
:1018B000CC120A6832F48042286A02430A6028681F
:1018C000C00507D5DFF8B4120A6832F48032686ABE
:1018D00002430A602868800507D5DFF8A0120A686D
:1018E00032F44022A86A02430A602868400507D5FE
:1018F000DFF888120A6832F48012E86A02430A604C
:101900002868000507D5DFF874120A6832F440022F
:10191000286B02430A602868C00407D5DFF85C1210
:101920000A6832F08072686B02430A60286880049B
:1019300007D5DFF848120A6832F04062A86B02430C
:101940000A602868400407D5DFF830120A6832F0D0
:101950008052E86B02430A602868000407D5DFF86C
:101960001C120A6822F06042286C02430A60286850
:10197000C00307D5DFF808120A6892089200686C65
:1019800002430A602868800307D5DFF8F4110A686B
:1019900032F00802A86C02430A602868400307D5A9
:1019A000DFF8DC110A6832F06002E86C02430A607A
:1019B0002868000307D5DFF8C8110A6832F400620E
:1019C000286D02430A602868C0020DD5DFF8B01107
:1019D0000A6832F44032686D02430A600A6832F4E1
:1019E0007042A86D02430A602868800207D5DFF8BC
:1019F00090110A6832F40022E86D02430A602868F8
:101A0000400207D5DFF878110A6832F48012286E98
:101A100002430A602868000207D5DFF868110A68E7
:101A200092089200686E02430A602868C00107D5D8
:101A3000DFF850110A6832F04002A86E02430A60D3
:101A40002868800107D5DFF83C110A6832F440723B
:101A5000E86E02430A602868400107D5DFF82411C8
:101A60000A6832F44062286F02430A60286800283E
:101A70005BD5DFF8147138688246386810F440701E
:101A80000400686F844250D05FF00008DFF8FC90DB
:101A9000D9F8000040070DD4D9F8000050F0040038
:101AA000C9F80000D9F8000010F004000090009878
:101AB00001208046DFF8D800016851F00101016083
:101AC000002C07D0386850F480303860386830F423
:101AD000803038603AF4034A686F002804D0686F99
:101AE00050EA0A0A5AF4004AC7F800A05FEACA702E
:101AF00011D5FEF7F6FF0600386880070BD4FEF715
:101B0000F0FF801B41F289318842F5D338688007A5
:101B1000F2D403200AE04046C0B2012805D1D9F82A
:101B2000000030F00400C9F800000020BDE8F6878E
:101B300030B40200DFF85C000368012A03D15807C3
:101B400001D4012016E0022A03D1980401D4012017
:101B500010E0032A03D1980301D401200AE0DFF842
:101B600038402568DFF8340028400843104303005C
:101B700023600020C0B230BC70470000000D03405D
:101B8000040D0340080D0340100D0340940C034066
:101B900028080340000C0340280C0340FC0FFFFF03
:101BA00030B40200DFF870502B689B089B00134391
:101BB0002B60DFF86800016832204143DFF86000E5
:101BC000B1FBF0F1491C140428682040A04203D066
:101BD000002901D0491EF7E7002901D1032000E0C8
:101BE000002030BC704738B5DFF82C50286850F41E
:101BF00080702860FEF775FF04002868C00109D4D2
:101C0000FEF76FFF001B0228F7D32868C001F4D449
:101C1000032000E0002032BD0C0803400401032033
:101C200040420F002DE9FC470500002D01D10120A5
:101C300095E2DFF8D006046814F00C042878C00799
:101C400040F18F80082C05D16868002840F0898019
:101C5000012084E26868002841D06868B0F5803FC0
:101C600006D1DFF89406016851F48031016027E065
:101C70006868B0F5A02F0AD1DFF87C06016851F43E
:101C800080210160016851F48031016018E06868CA
:101C9000B0F5A81F0AD1DFF86006016851F4A01161
:101CA0000160016851F48031016009E0DFF8480605
:101CB000016831F480310160016831F4A0110160E4
:101CC000FEF70FFF0700DFF830060068800348D4F6
:101CD000FEF707FFC01B6528F5D303203FE26868C5
:101CE000B0F5803F06D1DFF81006016851F480316D
:101CF000016027E06868B0F5A02F0AD1DFF8F80589
:101D0000016851F480210160016851F48031016063
:101D100018E06868B0F5A81F0AD1DFF8DC05016893
:101D200051F4A0110160016851F48031016009E0B3
:101D3000DFF8C405016831F480310160016831F4D5
:101D4000A0110160FEF7CDFE0700DFF8AC050068CA
:101D5000800306D5FEF7C5FEC01B6528F5D303201A
:101D6000FDE12878800749D5042C0ED1A868002809
:101D700001D10120F3E1DFF88805016831F4F811A1
:101D8000EA6851EA0241016038E0A86800281FD0E3
:101D9000DFF86485D8F8000050F40060C8F800004F
:101DA000FEF79FFE0700D8F80000800406D4FEF777
:101DB00098FEC01B0328F6D30320D0E1DFF84005CE
:101DC000016831F4F811EA6851EA0241016015E056
:101DD000DFF82485D8F8000030F40060C8F800006F
:101DE000FEF77FFE0700D8F80000800406D5FEF756
:101DF00078FEC01B0328F6D30320B0E12878C00684
:101E00002ED52869002815D0DFF8EC84D8F800001A
:101E100050F48040C8F80000FEF763FE0700D8F8D1
:101E2000000000041CD4FEF75CFEC01B0328F6D3A0
:101E3000032094E1DFF8C084D8F8000030F480403B
:101E4000C8F80000FEF74DFE0700D8F800000004B7
:101E500006D5FEF746FEC01B0328F6D303207EE11D
:101E60002878400740F17F805FF00008DFF8A894F1
:101E7000D9F8000040070DD4D9F8000050F0040054
:101E8000C9F80000D9F8000010F004000090009894
:101E900001208046DFF88404016851F001010160EF
:101EA0006869002837D0DFF878A4DAF8001031F03C
:101EB0008001686901430E00CAF80060FEF711FE58
:101EC0000700DAF80000800708D4FEF70AFEC01BFE
:101ED00041F289318842F4D3032040E1287D000695
:101EE0000CD5DAF80000000533D4FEF7FAFDC01B6C
:101EF00041F289318842F4D3032030E1DAF800005E
:101F0000000526D5FEF7EDFDC01B41F28931884260
:101F1000F4D3032023E1DFF808A4DAF8000030F05E
:101F20008100CAF80000DAF8000030F00400CAF8B6
:101F30000000FEF7D6FD0700DAF80000800708D59C
:101F4000FEF7CFFDC01B41F289318842F4D3032054
:101F500005E14046C0B2012805D1D9F8000030F0B3
:101F60000400C9F800002878000750D5DFF8B493C2
:101F7000D9F80080A869002836D0E86918F0040173
:101F8000884219D05FEA887016D55FEA98085FEA40
:101F90008808C9F80080FEF7A4FD0700D9F8000002
:101FA000800706D5FEF79DFDC01B1528F6D303203C
:101FB000D5E00120FFF798FB38F00408E86950EA03
:101FC0000808464656F00106C9F80060FEF789FD8C
:101FD0000700D9F80000800719D4FEF782FDC01B66
:101FE0001528F6D30320BAE0464676087600C9F8ED
:101FF0000060FEF776FD0700D9F80000800706D5DF
:10200000FEF76FFDC01B1528F6D30320A7E0287844
:1020100080065ED5286A00280CD1002C01D1012051
:102020009DE0DFF8D4020168490849000160002002
:10203000060036E0DFF8C012086810F0050001283D
:1020400001D101208BE0DFF8B422D2F8008028F023
:102050006048686A50EA0808A86A50EA080858F414
:102060000008C2F80080002C16D100F026F9DFF835
:10207000B812DFF89422126812F00F02895CC8408F
:10208000DFF88C120860DFF88C020068FEF716FD9E
:10209000002805D0012062E0086850F001000860C7
:1020A0000426FEF71EFD0700DFF84C82D8F800007A
:1020B00010F00400B0420CD0FEF713FDC01B032843
:1020C000F2D3D8F8000010F00400B042ECD00320A6
:1020D00045E02878400641D5E86A002808D1DFF8B5
:1020E0001802016831F008010160002006001DE0BF
:1020F000DFF80422106810F01800082801D1012030
:102100002DE0DFF8F831196831F0E051D5F830C032
:10211000686B50EA0C0C51EADC0151F400011960C3
:10212000106850F00800106010200600FEF7D9FC7F
:102130000700DFF8C481D8F8000010F01000B042AA
:102140000CD0FEF7CEFCC01B0328F2D3D8F8000059
:1021500010F01000B042ECD0032000E00020BDE8F9
:10216000F6872DE9F84F04000E00002C01D1012064
:10217000A1E0DFF8B8B1DBF8000010F00F00B042CA
:102180000ED2DBF80000000900013043CBF800005C
:10219000DBF8000010F00F00B04201D001208AE00F
:1021A0002078C00734D5DFF85001006882466068A7
:1021B000022804D15FEA8A300ED401207BE06068F7
:1021C000012804D15FEA8A4006D4012073E05FEA67
:1021D0004A7001D401206EE0DFF82851296889088F
:1021E0008900606801432960FEF77BFC804628680F
:1021F00010F00C006168B0EB810F09D0FEF771FCA4
:10220000B0EB080041F289318842F0D3032052E05C
:10221000DFF8F490D9F8007000252078800706D503
:102220003F093F013800A7680743012005002078D7
:10223000400706D537F070073800E76807430120EC
:1022400005002078000706D537F4E067206957EAD3
:10225000001701200500002D01D0C9F8007020787A
:10226000C00603D56069DFF8A4100860DBF8000041
:1022700010F00F0086420ED2DBF8000000090001CA
:102280003043CBF80000DBF8000010F00F00B04244
:1022900001D001200FE000F010F8DFF88C10D9F821
:1022A000002012F00F02895CC840194908601948E3
:1022B0000068FEF703FCBDE8F28F1248016811F0D8
:1022C0000C01082901D11A4815E0042901D1184848
:1022D00011E00A480268100207D5002A01D5154806
:1022E00000E01548C2F3417104E012480D49096845
:1022F000C1F30131C8407047000C0340080C034093
:10230000100C03401C0C0340200C0340240C034021
:102310000401032000010320940C0340280803401B
:10232000100D0340140D0340F427000A0020024062
:102330000024F40000366E0100D8B805F0B40300A4
:1023400000250868E840002800F0DF8001260F68BB
:1023500016FA05F007403A00002A00F0D480087908
:1023600010F00300012804D0087910F003000228BF
:102370001DD19F685FF0030C2800C0B240001CFA1A
:1023800000FC37EA0C07D1F80CC02800C0B24000AE
:102390001CFA00FC5CEA07079F605868AE40B04337
:1023A0004E68C6F30016AE40304304005C60087906
:1023B00010F00300032807D1087910F00300032868
:1023C00011D1886801280ED0DE6803272800C0B22A
:1023D00040008740BE438F682800C0B2400087405D
:1023E0003E433400DC60087910F00300022818D165
:1023F0002800C00803EB8000066A0F2715F00700CD
:10240000C0B280008740BE430F6915F00700C0B21C
:10241000800087403E4334002800C00803EB800062
:1024200004621E6803272800C0B240008740BE43F4
:102430000F7917F003072800C0B2400087403E43E1
:1024400034001C60486810F4403F5CD08F4F280077
:10245000800857F820605FF00F0C15F00300C0B241
:10246000C0001CFA00FC36EA0C068948834201D100
:1024700000241EE08748834201D1012419E08648E8
:10248000834201D1022414E08448834201D1032411
:102490000FE08348834201D104240AE0814883424B
:1024A00001D1062405E08048834201D1072400E0E1
:1024B000102415F00300C0B2C00084402643280059
:1024C000800847F82060794C206890434F68FF03EC
:1024D00000D510432060764E346894434F68BF03A4
:1024E00000D514433460734E306890434F68FF0248
:1024F00000D510433060704E346894434F68BF027B
:1025000000D5144334606D1C1BE7F0BC70472DE907
:10251000F041030000250800E840002800F0B480E6
:10252000012616FA05F008400200002A00F0AA80F1
:10253000DFF858C1280080085CF820000F2715F04C
:10254000030E5FFA8EFE5FEACE0E17FA0EFE1EEA4B
:10255000000004004E48834202D15FF0000E25E0E7
:102560004C48834202D15FF0010E1FE04A4883428B
:1025700002D15FF0020E19E04848834202D15FF0B9
:10258000030E13E04648834202D15FF0040E0DE0D3
:102590004448834202D15FF0060E07E0424883427E
:1025A00002D15FF0070E01E05FF0100E15F003009E
:1025B000C0B2C0001EFA00FE74452CD13B48D0F8D2
:1025C00000E03EEA020EC0F800E03948D0F800E032
:1025D0003EEA020EC0F800E03648D0F800E03EEADD
:1025E000020EC0F800E03448D0F800E03EEA020EE7
:1025F000C0F800E015F00300C0B2C00017FA00F008
:102600000400280080085CF82000A043AE465FEA82
:102610009E0E4CF82E005FF0030C1868AE465FFA71
:102620008EFE5FEA4E0E1CFA0EFE5EEA0000186097
:102630002800C00803EB800E2800C00803EB8000D0
:10264000D0F8208015F00700C0B28000874038EA3B
:102650000707CEF8207098682F00FFB27F001CFAA1
:1026600007F7B84398605868AE4030EA06065E60E7
:10267000DE682800C0B240001CFA00FC36EA0C0CF0
:10268000C3F80CC06D1C46E7BDE8F0816020034034
:10269000000002420004024200080242000C024212
:1026A0000010024200180242001C02428020034037
:1026B00084200340002003400420034030B4002560
:1026C00012E050F8042BD30744BF4A44521E091F9E
:1026D000042942F8045BFAD213468C0744BF1580E4
:1026E0009B1CC90748BF1D7050F8041B0029E8D186
:1026F00030BC704710B5074979441831064C7C440A
:10270000163404E00A68081D114488470146A142B6
:10271000F8D110BD2C000000480000004EF6885192
:10272000CEF20001086840F470000860BFF34F8FDC
:10273000BFF36F8F4FF00170E1EE100A7047000099
:102740007DFFFFFF640000000C010320000000007B
:102750003BF0FFFF380200006E0000000000032085
:1027600000F00DF8002801D0FFF7C4FFAFF30080A0
:102770000020AFF30080FEF7E5F900F002F8012039
:10278000704700F001B800000746384600F002F834
:10279000FBE7000080B5AFF30080024A110018206B
:1027A000ABBEFBE7260002000548014603B46846BD
:1027B00080F30988AFF30080FFF7B0FFFFF7D0FF89
:1027C000A5EDF5FE03490A680348007882180A60FF
:1027D000704700BF6C01032008010320FEE7FEE7FD
:1027E000FEE7FEE7FEE770477047704780B5FFF7EA
:1027F000E9FF01BD00000000000000000102030429
:10280000060708090148804701480047AD0E000A45
:10281000A927000AFFF7FEBFFFF7FEBFFFF7FEBFC5
:10282000FFF7FEBFFFF7FEBFFFF7FEBFFFF7FEBFDC
:10283000FFF7FEBFFFF7FEBFFFF7FEBFFFF7FEBFCC
:10284000FFF7FEBFFFF7FEBFFFF7FEBFFFF7FEBFBC
:10285000FFF7FEBFFFF7FEBFFFF7FEBFFFF7FEBFAC
:10286000FFF7FEBFFFF7FEBFFFF7FEBFFFF7FEBF9C
:10287000FFF7FEBFFFF7FEBFFFF7FEBFFFF7FEBF8C
:10288000FFF7FEBFFFF7FEBFFFF7FEBFFFF7FEBF7C
:10289000FFF7FEBFFFF7FEBFFFF7FEBFFFF7FEBF6C
:1028A000FFF7FEBFFFF7FEBFFFF7FEBFFFF7FEBF5C
:1028B000FFF7FEBFFFF7FEBFFFF7FEBFFFF7FEBF4C
:1028C000FFF7FEBFFFF7FEBFFFF7FEBFFFF7FEBF3C
:1028D000FFF7FEBFFFF7FEBFFFF7FEBFFFF7FEBF2C
:1028E000FFF7FEBFFFF7FEBFFFF7FEBFFFF7FEBF1C
:1028F000FFF7FEBFFFF7FEBFFFF7FEBFFFF7FEBF0C
:10290000FFF7FEBFFFF7FEBFFFF7FEBFFFF7FEBFFB
:10291000FFF7FEBFFFF7FEBFFFF7FEBFFFF7FEBFEB
:10292000FFF7FEBFFFF7FEBFFFF7FEBFFFF7FEBFDB
:10293000FFF7FEBFFFF7FEBFFFF7FEBFFFF7FEBFCB
:10294000FFF7FEBFFFF7FEBFFFF7FEBFFFF7FEBFBB
:10295000FFF7FEBFFFF7FEBFFFF7FEBFFFF7FEBFAB
:10296000FFF7FEBFFFF7FEBFFFF7FEBFFFF7FEBF9B
:10297000FFF7FEBFFFF7FEBFFFF7FEBFFFF7FEBF8B
:10298000FFF7FEBFFFF7FEBFFFF7FEBF13202A01D0
:10299000201E4D656D6F72792D6D617070656420BC
:1029A0004F53504920636F6D6D756E696361746933
:1029B0006F6E24F2C1202A12000122100500021BB2
:0329C000B700015C
:040000050A0027A91D
:00000001FF
